{
  "contractName": "Voter",
  "abi": [
    {
      "constant": true,
      "inputs": [
        {
          "internalType": "uint256",
          "name": "",
          "type": "uint256"
        }
      ],
      "name": "options",
      "outputs": [
        {
          "internalType": "string",
          "name": "",
          "type": "string"
        }
      ],
      "payable": false,
      "stateMutability": "view",
      "type": "function"
    },
    {
      "constant": true,
      "inputs": [
        {
          "internalType": "uint256",
          "name": "",
          "type": "uint256"
        }
      ],
      "name": "votes",
      "outputs": [
        {
          "internalType": "uint256",
          "name": "",
          "type": "uint256"
        }
      ],
      "payable": false,
      "stateMutability": "view",
      "type": "function"
    },
    {
      "constant": false,
      "inputs": [
        {
          "internalType": "string",
          "name": "option",
          "type": "string"
        }
      ],
      "name": "addOption",
      "outputs": [],
      "payable": false,
      "stateMutability": "nonpayable",
      "type": "function"
    },
    {
      "constant": false,
      "inputs": [],
      "name": "startVoting",
      "outputs": [],
      "payable": false,
      "stateMutability": "nonpayable",
      "type": "function"
    },
    {
      "constant": false,
      "inputs": [
        {
          "internalType": "uint256",
          "name": "option",
          "type": "uint256"
        }
      ],
      "name": "vote",
      "outputs": [],
      "payable": false,
      "stateMutability": "nonpayable",
      "type": "function"
    },
    {
      "constant": false,
      "inputs": [
        {
          "internalType": "string",
          "name": "option",
          "type": "string"
        }
      ],
      "name": "vote",
      "outputs": [],
      "payable": false,
      "stateMutability": "nonpayable",
      "type": "function"
    },
    {
      "constant": true,
      "inputs": [],
      "name": "getVotes",
      "outputs": [
        {
          "internalType": "uint256[]",
          "name": "",
          "type": "uint256[]"
        }
      ],
      "payable": false,
      "stateMutability": "view",
      "type": "function"
    }
  ],
  "bytecode": "0x608060405234801561001057600080fd5b506109a9806100206000396000f3fe608060405234801561001057600080fd5b506004361061007d5760003560e01c8063409e22051161005b578063409e2205146101015780635df8133014610193578063edc550dc146101c2578063fc36e15b146102685761007d565b80630121b93f146100825780630dc96015146100a15780631ec6b60a146100f9575b600080fd5b61009f6004803603602081101561009857600080fd5b503561030e565b005b6100a9610408565b60408051602080825283518183015283519192839290830191858101910280838360005b838110156100e55781810151838201526020016100cd565b505050509050019250505060405180910390f35b61009f610461565b61011e6004803603602081101561011757600080fd5b50356105b6565b6040805160208082528351818301528351919283929083019185019080838360005b83811015610158578181015183820152602001610140565b50505050905090810190601f1680156101855780820380516001836020036101000a031916815260200191505b509250505060405180910390f35b6101b0600480360360208110156101a957600080fd5b503561065c565b60408051918252519081900360200190f35b61009f600480360360208110156101d857600080fd5b8101906020810181356401000000008111156101f357600080fd5b82018360208201111561020557600080fd5b8035906020019184600183028401116401000000008311171561022757600080fd5b91908080601f01602080910402602001604051908101604052809392919081815260200183838082843760009201919091525092955061067a945050505050565b61009f6004803603602081101561027e57600080fd5b81019060208101813564010000000081111561029957600080fd5b8201836020820111156102ab57600080fd5b803590602001918460018302840111640100000000831117156102cd57600080fd5b91908080601f01602080910402602001604051908101604052809392919081815260200183838082843760009201919091525092955061071b945050505050565b6003548110610355576040805162461bcd60e51b815260206004820152600e60248201526d24b73b30b634b21037b83a34b7b760911b604482015290519081900360640190fd5b3360009081526001602052604090205460ff16156103b6576040805162461bcd60e51b81526020600482015260196024820152781058d8dbdd5b9d081a185cc8185b1c9958591e481d9bdd1959603a1b604482015290519081900360640190fd5b3360009081526001602081905260408220805460ff191690911790558054829081106103de57fe5b9060005260206000200154600101600082815481106103f957fe5b60009182526020909120015550565b6060600080548060200260200160405190810160405280929190818152602001828054801561045657602002820191906000526020600020905b815481526020019060010190808311610442575b505050505090505b90565b60045460ff16156104b9576040805162461bcd60e51b815260206004820152601a60248201527f566f74696e672068617320616c72656164792073746172746564000000000000604482015290519081900360640190fd5b6003546104c76000826108a1565b5060005b6003548110156105a6576104dd6108c5565b60405180604001604052808381526020016001151581525090508060026003848154811061050757fe5b90600052602060002001604051808280546001816001161561010002031660029004801561056c5780601f1061054a57610100808354040283529182019161056c565b820191906000526020600020905b815481529060010190602001808311610558575b5050928352505060405160209181900382019020825181559101516001918201805460ff19169115159190911790559190910190506104cb565b506004805460ff19166001179055565b600381815481106105c357fe5b600091825260209182902001805460408051601f60026000196101006001871615020190941693909304928301859004850281018501909152818152935090918301828280156106545780601f1061062957610100808354040283529160200191610654565b820191906000526020600020905b81548152906001019060200180831161063757829003601f168201915b505050505081565b6000818154811061066957fe5b600091825260209091200154905081565b60045460ff16156106d2576040805162461bcd60e51b815260206004820152601a60248201527f566f74696e672068617320616c72656164792073746172746564000000000000604482015290519081900360640190fd5b60038054600181018083556000929092528251610716917fc2575a0e9e593c00f959f8c92f12db2869c3395a3b0502d05e2516446f71f85b019060208501906108dc565b505050565b3360009081526001602052604090205460ff161561077c576040805162461bcd60e51b81526020600482015260196024820152781058d8dbdd5b9d081a185cc8185b1c9958591e481d9bdd1959603a1b604482015290519081900360640190fd5b6107846108c5565b6002826040518082805190602001908083835b602083106107b65780518252601f199092019160209182019101610797565b51815160209384036101000a6000190180199092169116179052920194855250604080519485900382018520858201909152805485526001015460ff16151590840181905292935061084a915050576040805162461bcd60e51b815260206004820152601560248201527413dc1d1a5bdb88191bd95cc81b9bdd08195e1a5cdd605a1b604482015290519081900360640190fd5b3360009081526001602081905260408220805460ff1916909117905581518154811061087257fe5b9060005260206000200154600101600082600001518154811061089157fe5b6000918252602090912001555050565b8154818355818111156107165760008381526020902061071691810190830161095a565b604080518082019091526000808252602082015290565b828054600181600116156101000203166002900490600052602060002090601f016020900481019282601f1061091d57805160ff191683800117855561094a565b8280016001018555821561094a579182015b8281111561094a57825182559160200191906001019061092f565b5061095692915061095a565b5090565b61045e91905b80821115610956576000815560010161096056fea265627a7a72315820c26d87012cfb5defd78ec5d3b47270f7eeb560aefecf580858e7c750b126352764736f6c63430005100032",
  "source": "pragma solidity ^0.5.0;\n\ncontract Voter {\n\n    struct OptionPos {\n        uint pos;\n        bool exists;\n    }\n\n    uint[] public votes;\n    mapping (address => bool) hasVoted;\n    mapping (string => OptionPos) posOfOption;\n    string[] public options;\n    bool votingStarted;\n\n    function addOption(string memory option) public {\n        require(!votingStarted, \"Voting has already started\");\n        options.push(option);\n    }\n\n    function startVoting() public {\n        require(!votingStarted, \"Voting has already started\");\n        votes.length = options.length;\n\n        for (uint i = 0; i < options.length; i++) {\n            OptionPos memory option = OptionPos(i, true);\n            posOfOption[options[i]] = option;\n        }\n        votingStarted = true;\n    }\n\n    function vote(uint option) public {\n        require(0 <= option && option < options.length, \"Invalid option\");\n        require(!hasVoted[msg.sender], \"Account has already voted\");\n\n        hasVoted[msg.sender] = true;\n        votes[option] = votes[option] + 1;\n    }\n\n    function vote(string memory option) public {\n        require(!hasVoted[msg.sender], \"Account has already voted\");\n        OptionPos memory optionPos = posOfOption[option];\n        require(optionPos.exists, \"Option does not exist\");\n\n        hasVoted[msg.sender] = true;\n        votes[optionPos.pos] = votes[optionPos.pos] + 1;\n    }\n\n    function getVotes() public view returns (uint[] memory) {\n        return votes;\n    }\n}\n",
  "sourcePath": "/Users/sahil/sk/myTruffle/contracts/Voter.sol",
  "compiler": {
    "name": "solc",
    "version": "0.5.16+commit.9c3226ce.Emscripten.clang"
  },
  "schemaVersion": "3.2.0",
  "updatedAt": "2020-05-31T12:05:34.495Z",
  "networkType": "ethereum",
  "devdoc": {
    "methods": {}
  },
  "userdoc": {
    "methods": {}
  }
}